:020000040800F2
:10000000000001209D21000845070008470700085F
:10001000490700084B0700084D07000800000000D2
:10002000000000000000000000000000E11A0008CD
:100030004F07000800000000111B0008791B000892
:10004000E9210008E9210008E9210008E921000868
:10005000E9210008E9210008E9210008E921000858
:10006000E9210008E9210008E9210008E921000848
:10007000E9210008E9210008E9210008E921000838
:10008000E9210008E9210008E9210008000000003A
:10009000000000000000000000000000E92100084E
:1000A000E921000851070008E9210008E9210008BA
:1000B000E9210008E9210008E9210008E9210008F8
:1000C000E9210008E9210008E9210008E9210008E8
:1000D000E9210008E9210008E921000800000000EA
:1000E000E9210008E9210008E921000800000000DA
:1000F000000000000000000000000000E9210008EE
:1001000000000000E9210008E9210008E9210008B9
:1001100000000000000000000000000000000000DF
:10012000E9210008E9210008E9210008E921000887
:10013000E9210008000000000000000000000000AD
:10014000000000000000000000000000E92100089D
:10015000E9210008E9210008E9210008E921000857
:10016000E9210008E921000800000000000000006B
:10017000000000000000000000000000000000007F
:1001800000000000E921000800000000000000005D
:04019000E921000859
:1001A0000348044B834202D0034B03B11847704706
:1001B0003001002030010020000000000548064BFF
:1001C0001B1AD90F01EBA301491002D0034B03B155
:1001D0001847704730010020300100200000000067
:1001E00010B5064C237843B9FFF7DAFF044B13B17F
:1001F0000448AFF300800123237010BD30010020BC
:10020000000000000022000808B5044B1BB104499F
:100210000448AFF30080BDE80840CFE700000000CD
:10022000340100200022000853B94AB9002908BF50
:1002300000281CBF4FF0FF314FF0FF3000F06AB9CB
:10024000ADF1080C6DE904CE00F006F8DDF804E02D
:10025000DDE9022304B070472DE9F047089D0E4602
:1002600004460F46002B4AD194468C45B2FA82F2DE
:1002700060D942B1C2F12003974020FA03F30CFA8F
:1002800002FC1F4394404FEA1C4E1FFA8CF6B7FB4A
:10029000FEF1230C0EFB117743EA074301FB06F046
:1002A00098420AD91CEB030301F1FF3780F0158156
:1002B000984240F21281023963441B1AA4B2B3FB84
:1002C000FEF00EFB103344EA034400FB06F6A642A0
:1002D0000AD91CEB040400F1FF3380F00081A64230
:1002E00040F2FD806444023840EA0140A41B002132
:1002F0001DB1D4400023C5E90043BDE8F0878B421F
:1003000005D90DB1C5E9000100210846F5E7B3FAAA
:1003100083F1002946D1B34202D3824200F2F58034
:10032000841A66EB030201201746002DE5D0C5E9CB
:100330000047E2E7002A40F09380A1EB0C034FEA6C
:100340001C471FFA8CFE0121B3FBF7F607FB1630A2
:10035000230C43EA00430EFB06F0984208D91CEB3D
:10036000030306F1FF3802D2984200F2D0804646DD
:100370001B1AA4B2B3FBF7F007FB103344EA0344A3
:100380000EFB00FEA64508D91CEB040400F1FF3368
:1003900002D2A64500F2B6801846A4EB0E0440EA4D
:1003A0000640A5E7C1F120078B4022FA07FC4CEA82
:1003B000030C06FA01FE20FA07F426FA07F344EAD2
:1003C0000E0400FA01F84FEA1C404FEA1449B3FB4F
:1003D000F0FE1FFA8CF600FB1E3349EA03430EFBC6
:1003E00006F9994502FA01F20BD91CEB03030EF151
:1003F000FF3A80F08580994540F28280AEF1020E8E
:100400006344A3EB0909A4B2B9FBF0F300FB139911
:1004100044EA094403FB06F6A64208D91CEB04048F
:1004200003F1FF3068D2A64266D9023B644443EA36
:100430000E40A41BA0FB02E6B4427346B14652D361
:100440004FD05DB1B8EB030264EB090404FA07F77F
:1004500022FA01F31F43CC40C5E9007400214CE7A8
:10046000C2F1200120FA01F30CFA02FC26FA01F194
:10047000964033434FEA1C471FFA8CFEB1FBF7F05E
:1004800007FB1016190C41EA064100FB0EF68E42DE
:1004900004FA02F408D91CEB010100F1FF382DD257
:1004A0008E422BD902386144891B9BB2B1FBF7F60F
:1004B00007FB161143EA014306FB0EF1994208D9E6
:1004C0001CEB030306F1FF3814D2994212D9023E05
:1004D00063445B1A46EA004136E73946EDE61846C2
:1004E00002E7F045ADD2BEEB020366EB0C06013825
:1004F000B146A6E74646ECE7034698E74046D3E711
:10050000D6467EE76444023847E708460DE7023ED8
:1005100063442DE7704700BF830730B547D0541EB2
:10052000002A3ED0CAB2034601E0013C39D303F8A9
:10053000012B9D07F9D1032C2CD9CDB205EB052554
:100540000F2C05EB054535D9A4F1100222F00F0C54
:1005500003F1100EE6444FEA121C1A46C2E9005598
:10056000C2E9025510327245F8D10CF1010214F0C3
:100570000C0F03EB021204F00F0C13D0ACF10403C8
:1005800023F003030433134442F8045B9342FBD18A
:100590000CF003042CB1C9B21C4403F8011BA342A4
:1005A000FBD130BD64461346002CF4D1F9E7034675
:1005B0001446C0E71A46A446E0E700BF0023014600
:1005C0001A46184600F014B838B5074D074C2C1BD6
:1005D000A41005D0013C55F8043D9847002CF9D1F2
:1005E000BDE8384001F012BE442200084022000855
:1005F00070B4164D2C681CB365681F2D23DC38B908
:10060000AB1C0135656044F82310002070BC7047B6
:1006100004EB850C0228CCF88820D4F888614FF0D0
:10062000010202FA05F246EA0206C4F88861CCF833
:100630000831E5D1D4F88C311343C4F88C31DFE7AD
:10064000034C2C60D8E74FF0FF30DFE74C0100206F
:100650005001002008B501F0CBFB01F04DFCFCE798
:10066000034AD2F8883043F47003C2F888307047E8
:1006700000ED00E082B00E4B00220092596C41F474
:1006800080415964596C01F48041009100990192B4
:10069000196C41F0805119641B6C03F08053019375
:1006A000019B0F216FF0010002B000F0B3B800BF52
:1006B0000038024070B588B000241D4B02945A6C7B
:1006C0001C4D42F400325A645B6C03F4003301A900
:1006D0000293064603A8029B00F04EFE00F03CFE8B
:1006E000154B2B6040F2E733EB60144BB0FBF3F09B
:1006F0000138686028462C61AC60AC6100F0F8FFFE
:10070000044680B9284600F0E7FE044658B919208F
:1007100000F0B2F80F2E09D822463146192000F019
:1007200079F8074B1E60204608B070BD0124FAE737
:1007300000380240E00200200044014040420F0027
:1007400004000020FEE7FEE7FEE7FEE7FEE7704755
:10075000014800F0F8BE00BFE00200207047000032
:100760000B4B0C4A10B51A6200240B4A1C625A62E9
:100770000A4A5C621A6180221C615A614FF0FF32A2
:100780005C619A619C61FFF7E9FF204610BD00BFE4
:10079000003802400FC8E210317907009F10600056
:1007A00008B50B4B1A6842F400721A601A6842F4DA
:1007B00080621A601A6842F480721A60032000F0A6
:1007C00017F80F20FFF776FFFFF754FF002008BD52
:1007D000003C0240014B1868704700BF280300200E
:1007E000024B1868C0F30B00704700BF002004E004
:1007F0000749CA6822F4E0620302120403F4E063CA
:10080000120C134343F0BF6343F40033CB607047D3
:1008100000ED00E0164B30B5DC68C4F30224C4F1EF
:100820000703251D042B28BF0423062D4FF0FF3599
:100830008CBF033C002405FA03F321EA0303A5401F
:1008400022EA0502A340002843EA0203ACBF00F1FC
:100850006040084A4FEA0313B8BF00F00F00DBB254
:10086000AABF00F56140135480F8003330BD00BFCB
:1008700000ED00E014ED00E0002807DB044A410928
:10088000012300F01F00834042F82130704700BF71
:1008900000E100E0704710B5044650B1437903F021
:1008A000FF0213B90271FFF7F5FF01236371002006
:1008B00010BD0120FCE7704738B5054690B143797B
:1008C000022BDCB20CD00223437103689A68002427
:1008D00042F001029A601C71FFF7EDFF6C712C7100
:1008E000204638BD0124FBE710B5034602205871AD
:1008F000186801EB8202914203D1012200685A710B
:1009000010BD51F8044B0460F5E70000094910B52B
:100910000C6924F440740C610C6944F440740C615B
:100920000C6944F001040C610260BFF36F8F4360F7
:1009300010BD00BF003C0240074B1A6922F4407210
:100940001A611A6942F400721A611A6942F00102CE
:100950001A610160704700BF003C0240074B1A69F2
:1009600022F440721A611A6942F480721A611A699B
:1009700042F001021A610180704700BF003C024052
:10098000204BDA68D00606D51F49CA6942F010022A
:10099000CA611022DA60DA68910606D51A49CA6976
:1009A00042F00802CA612022DA60164BDA68520669
:1009B00006D51549CA6942F00402CA614022DA60CC
:1009C000DA68100606D51049CA6942F00202CA6107
:1009D0008022DA600B4BDA68D10507D50A49CA696B
:1009E00042F00102CA614FF48072DA60DA6892075D
:1009F00006D50549CA6942F02002CA610222DA60BE
:100A0000704700BF003C024008000020064B1A69F6
:100A1000002ABFBF054A5A6002F188325A60BABF45
:100A20001869C00F00207047003C02402301674551
:100A3000034A136943F0004313610020704700BF6D
:100A4000003C0240114B70B500220446DA61FFF70A
:100A5000C1FE0F4D0646EB68DA030CD4EB68DB07EA
:100A600044BF0123EB60E86810F4F97007D0FFF78A
:100A700087FF012003E0611CEDD00CB9032070BD9D
:100A8000FFF7A8FE801BA042E5D9F7E70800002089
:100A9000003C02402DE9F0411F4E9846337E012B69
:100AA00007460D46144635D001234CF250303376BC
:100AB000FFF7C8FFB0B9CFB9184B1A6922F44072DA
:100AC0001A611A691A611A69E4B242F001021A61E4
:100AD0002C704CF25030FFF7B5FF104A136923F029
:100AE0000103136100233376BDE8F081012F04D1A7
:100AF000A1B22846FFF732FFEBE7022F04D12146CF
:100B00002846FFF719FFE4E7224643462846FFF749
:100B1000FDFEDEE70220E7E708000020003C02407F
:100B2000074B1A6922F440721A611A6942F00402F2
:100B30001A611A6942EA002242F480321A6170474F
:100B4000003C02400F2303600A4BDA8A92B28260B3
:100B5000597DCC29CAB203D05A7DAA2A18BF552282
:100B600002615A6922F01F0202761B7D03F00C031A
:100B700043617047003C02400D4B1A6922F44072F9
:100B80001A611A69022994BF09024FF440710A439D
:100B90001A611A6922F0F8021A611A6942EAC00061
:100BA00040F0020018611A6942F480321A617047FD
:100BB000003C0240144B1A6891050FD51A6822F4C4
:100BC00000721A601A6842F400621A601A6822F40D
:100BD00000621A601A6842F400721A600A4B1A68BE
:100BE00052050FD51A6822F480621A601A6842F41E
:100BF00080521A601A6822F480521A601A6842F40D
:100C000080621A60704700BF003C02402DE9F84343
:100C1000DFF8948098F81830012B05460F463FD036
:100C200001234CF2503088F81830FFF70BFF0446D0
:100C3000A0B94FF0FF333B602B68012B14D1287C07
:100C4000FFF76EFF4CF25030FFF7FCFE154A1369B8
:100C500023F0040304461361FFF7ACFF002388F878
:100C600018302046BDE8F883AE68DFF83890D5E943
:100C700002231344B342EFD9297C3046FFF77CFFAF
:100C80004CF25030FFF7DEFED9F8103023F0FA03B3
:100C9000C9F8103010B13E600446DDE70136E6E7E2
:100CA0000224DEE7003C0240080000202DE9F74F57
:100CB000DFF880915D4A00230D6801249C4004EA1E
:100CC0000506AC4340F0A3804D68032705F00304FC
:100CD0004FEA430807FA08FC671E012F6FEA0C0C65
:100CE00034D8876807EA0C0ECF6807FA08F747EA96
:100CF0000E078760476827EA060EC5F300179F4076
:100D000047EA0E074760C76807EA0C0E8F6807FAC4
:100D100008F747EA0E07022CC76019D14FEAD30A39
:100D200000EB8A0A03F0070BDAF820704FEA8B0B0E
:100D30004FF00F0E0EFA0BFE27EA0E0E0F6907FAA0
:100D40000BF747EA0E07CAF8207001E0032CDAD14E
:100D5000076804FA08F407EA0C073C4315F4403F1F
:100D6000046054D000240194D9F8444044F48044F1
:100D7000C9F84440D9F8444023F0030707F18047FD
:100D800004F4804407F59C37019403F0030C019CA4
:100D9000D7F808E04FEA8C0C0F2404FA0CF42EEA82
:100DA000040E234CA04239D004F58064A04237D011
:100DB00004F58064A04235D004F58064A04233D0AD
:100DC00004F58064A04214BF0724042404FA0CF440
:100DD00044EA0E04BC609468F74315F4801F0CBF0E
:100DE0003C4034439460D46815F4001F0CBF3C4071
:100DF0003443D460546815F4003F0CBF3C40344386
:100E000054601468ED0354BF3C4034431460013314
:100E1000102B7FF451AF03B0BDE8F08F0024D5E76D
:100E20000124D3E70224D1E70324CFE7003C0140AB
:100E30000000024000380240436901EA030221EA4F
:100E4000030141EA02418161704700002DE9F3414D
:100E5000044640B30368DE0710D423689D075BD4C3
:100E60002368190700F19D8023685A0700F1BD80AF
:100E7000A369002B40F0248100202CE08D4B9A6860
:100E800002F00C02042A07D09A6802F00C02082A29
:100E90000BD15B68590208D5864B1B689A03DCD5D9
:100EA0006368002BD9D1012015E06368814DB3F54B
:100EB000803F13D12B6843F480332B60FFF78AFC0B
:100EC0007C4E054633689B03C7D4FFF783FC401B69
:100ED0006428F7D9032002B0BDE8F081B3F5A02F54
:100EE00004D12B6843F480232B60E3E72A6822F4C3
:100EF00080322A602A6822F480222A60002BDDD109
:100F0000FFF768FC06462B689F03A6D5FFF762FC37
:100F1000801B6428F7D9DDE7664B9A6812F00C0F46
:100F200007D09A6802F00C02082A11D15B685D02B2
:100F30000ED4604A1368990702D5E368012BB2D139
:100F40001368216923F0F80343EAC103136087E7BC
:100F5000E268594BB2B101221A60FFF73BFC554DD4
:100F600006462B689B0707D52B68226923F0F803F8
:100F700043EAC2032B6073E7FFF72CFC801B0228B7
:100F8000EFD9A7E71A60FFF725FC4A4E05463368FC
:100F90009F077FF565AFFFF71DFC401B0228F6D9C0
:100FA00098E76269444B82B10122C3F8802EFFF7B3
:100FB00011FC404E0546736F9B073FF555AFFFF799
:100FC00009FC401B0228F6D984E7C3F8802EFFF7FE
:100FD00001FC384E0546736F9F077FF545AFFFF75D
:100FE000F9FB401B0228F6D974E7324B1A6C12F059
:100FF000805228D101921A6C42F080521A641B6C04
:1010000003F080530193019B01272C4D2B68D805D9
:101010001BD5A368274D012B27D12B6F43F001036C
:101020002B67FFF7D7FB234E054641F28838336F15
:101030009A0739D5002F3FF41BAF1E4A136C23F0DB
:101040008053136414E70027DFE72B6843F48073B1
:101050002B60FFF7BFFB06462B68D905D9D4FFF7F5
:10106000B9FB801B0228F7D934E7052B04D12B6F7D
:1010700043F004032B67D0E72A6F22F001022A67AE
:101080002A6F22F004022A67002BCAD1FFF7A2FBC5
:1010900041F2883806462B6F9B07CBD5FFF79AFBAA
:1010A000801B4045F7D915E7FFF794FB401B4045EF
:1010B000BDD90FE7003802400000474200700040F1
:1010C000374DAA6802F00C02082A3ED0022B354B9D
:1010D0004FF000021A662BD1FFF77CFB06462B6807
:1010E00099011FD4D4E907321343626A43EA821399
:1010F000E26A43EA0263A26A5208013A43EA0243FF
:101100006B60284B264D01221A66FFF763FB0446ED
:101110002B689A013FF5B0AEFFF75CFB001B02287D
:10112000F6D9D7E6FFF756FB801B0228D7D9D1E6C0
:10113000FFF750FB04462B689B017FF59DAEFFF740
:1011400049FB001B0228F6D9C4E6012B3FF4ABAEE5
:101150006B68E26903F4800191427FF4A4AE216AD6
:1011600003F03F028A427FF49EAE616A47F6C07286
:101170001A40B2EB811F7FF496AEA26A520803F4C4
:101180004031013AB1EB024F7FF48DAEE26A03F0D9
:101190007063B3EB026F14BF012000209BE600BF19
:1011A0000038024000004742134908B58B6803F03D
:1011B0000C03042B1CD0082B1CD14A684B684968CF
:1011C00013F4800314BF0D480D48C1F3881118BFF4
:1011D000002302F03F02A1FB0001FFF725F8064BB8
:1011E0005B68C3F3014301335B00B0FBF3F008BD60
:1011F0000248FCE70248FAE70038024040787D01E7
:101200000024F4002DE9F0410D46044610B90120F8
:10121000BDE8F081434B1A6802F007028A4228D3E6
:1012200021688F072DD4C80740D43E4B1A6802F0BE
:101230000702AA4265D8226851076BD4130707D565
:10124000394A2169936823F4604343EAC1039360F8
:10125000FFF7AAFF344B354A9B68C3F30313D35CF3
:10126000D840334B1860334B1868FFF723FA00203F
:10127000CEE7CAB21A701B6803F007038B42C6D1CF
:10128000CEE7294B11F0040F1EBF9A6842F4E052DA
:101290009A600E0742BF9A6842F460429A609A6868
:1012A000A06822F0F00202439A60BCE762681E4B1D
:1012B000012A1CD11B6813F4003FA8D01A4EB36852
:1012C00023F003031343B360FFF784FA41F2883835
:1012D0000746B368626803F00C03B3EB820FA4D037
:1012E000FFF778FAC01B4045F3D9032090E7911E21
:1012F00001291B6802D813F0007FDEE713F0020F0C
:10130000DBE7EAB21A701B6803F00703AB427FF415
:101310007EAF90E70449E0688B6823F4E053034311
:101320008B608BE7003C024000380240202200081E
:101330000000002004000020044B054A9B68C3F312
:101340008223D35C034A1068D840704700380240BB
:101350001822000800000020044B054A9B68C3F3D4
:101360004233D35C034A1068D840704700380240CB
:1013700018220008000000200F2303600B4B9A681E
:1013800002F0030242609A6802F0F00282609A68FA
:1013900002F4E052C2609B68DB0803F4E05303618F
:1013A000034B1B6803F007030B60704700380240D3
:1013B000003C024070B5414CFFF70CFA236843F043
:1013C0000103054623602368980758D5236843F036
:1013D00080032360FFF7FEF90023A360374C054626
:1013E00041F28836A36813F00C0F4FD1FFF7F2F9E2
:1013F000236823F450232360304C05462368990367
:101400004AD4FFF7E7F9236823F0807323602B4C5D
:10141000054623689A0145D4FFF7DCF9236823F0D9
:1014200080632360254C054623681B0140D4244B70
:101430006360244BC4F88430E368234A23F4F853F0
:10144000E360E36823F40053E360E36843F41F03BD
:10145000E360E36843F40013E360636F23F0010388
:101460006367636F43F080736367184B1A60184BB0
:101470001868FFF71FF9003818BF012005E0FFF7D3
:10148000A9F9401B02289ED9032070BDFFF7A2F9DD
:10149000401BB042A6D9F7E7FFF79CF9401B642830
:1014A000ACD9F1E7FFF796F9401B0228B1D9EBE779
:1014B000FFF790F9401B0228B6D9E5E70038024053
:1014C00010300004003000200024F4000000002050
:1014D000040000207047000090F83D30012B28D117
:1014E000022380F83D300368DA6842F00102DA60D6
:1014F000114A934212D0B3F1804F0FD0A2F57C4233
:1015000093420BD002F58062934207D002F58062CD
:10151000934203D002F59A32934204D19A6802F0C2
:101520000702062A03D01A6842F001021A6000205E
:1015300070470120704700BF0000014070477047AE
:10154000704770477047036870B5DD681E69B10762
:1015500004460DD5AA070BD56FF002021A610122CD
:1015600002779B699B0769D0FFF7EAFF0023237787
:10157000710710D56A070ED523686FF004021A614F
:10158000022222779B6913F4407F20465CD0FFF74C
:10159000D7FF0023237733070FD528070DD52368FE
:1015A0006FF008021A6104222277DB69990720464E
:1015B00050D0FFF7C5FF00232377F20610D5EB06C6
:1015C0000ED523686FF010021A6108222277DB69BA
:1015D00013F4407F204643D0FFF7B2FF0023237768
:1015E000F00708D5E90706D523686FF001021A61F4
:1015F0002046FFF7A3FF320608D52B0606D5236841
:101600006FF080021A61204600F09FF8700608D53E
:10161000690606D523686FF040021A612046FFF77D
:1016200091FFB20622D5AB0620D523686FF02002C9
:1016300020461A61BDE8704000F086B8FFF77FFFD2
:101640002046FFF77EFF91E7FFF779FF2046FFF77F
:1016500078FF9EE7FFF773FF2046FFF772FFAAE7C8
:10166000FFF76DFF2046FFF76CFFB7E770BD000086
:101670001D4A036890420ED0B0F1804F0BD0A2F506
:101680007C42904207D002F58062904203D002F57E
:101690008062904208D14A6823F070031343CA68FD
:1016A00023F4407313430AE0104A9042F7D002F546
:1016B00080629042F3D002F580629042EFD04A6996
:1016C00023F0800313438A68C2620A688262064A72
:1016D000904204BF0A690263026842F00402026099
:1016E0000122426103607047000001400040014058
:1016F00010B5044630B390F83D3003F0FF021BB93B
:1017000080F83C20FFF7E6FE0223206884F83D3095
:10171000211DFFF7ADFF012384F84630002084F837
:101720003E3084F83F3084F8403084F8413084F80B
:10173000423084F8433084F8443084F8453084F8EB
:101740003D3010BD0120FCE770477047026802F190
:101750000C0353E8003F23F490730C3242E800314D
:1017600002680029F2D102F1140353E8003F23F08C
:10177000010302F1140C4CE800310029F3D1036B92
:10178000012B0BD102F10C0353E8003F23F01003AF
:1017900002F10C0C4CE800310029F3D1202380F831
:1017A00042300023036370470268C16838B513698B
:1017B00023F440530B431361054683680069D168E5
:1017C000034368690343E86921F4164121F00C01E1
:1017D00003430B43D3605369A96923F440730B435C
:1017E00053611F4B9A4203D003F580639A4224D180
:1017F000FFF7B2FDEA691921B2F5004FD5E90043C0
:10180000A0FB01011CD1DA184FF0000545EB0503E0
:10181000FEF70AFD6422B0FBF2F102FB1103DB00CC
:101820003233B3FBF2F303F007025B0002EB011269
:1018300003F4F8731344A36038BDFFF77DFDD9E7C7
:101840009A009B0FFEF7F0FC6422B0FBF2F102FB62
:1018500011031B013233B3FBF2F303EB0113EAE78D
:1018600000100140F7B505460C4617461E462A688B
:10187000136834EA030301D1002021E0701CF7D083
:10188000FEF7A8FFC01B86421CD3DEB12B68DA68C6
:101890005107ECD5802CEAD0402CE8D01A6812070A
:1018A000E5D5002401941A6801925B6801932846EB
:1018B000019BFFF74BFF08236B6485F84040012034
:1018C00003B0F0BD0320FBE7704710B5044648B3F2
:1018D00090F8413003F0FF021BB980F84020FFF779
:1018E000F3FF2268242384F84130D36823F40053A3
:1018F000D3602046FFF758FF23681A6922F490420C
:101900001A615A6922F02A025A61DA6842F40052D6
:10191000DA6000202023606484F8413084F842308B
:10192000606310BD0120FCE7704710B50446A0B10C
:101930000268242380F84130D36823F40053D36035
:10194000FFF7F2FF0020606484F8400084F8410053
:1019500084F842002063606310BD0120FCE72DE99C
:10196000F843984690F84130202B04460E4617461F
:101970003FD100293FD0002A3DD0212300254564D6
:1019800080F84130FEF726FFA368A784B3F5805F97
:101990008146E78403D123690BB935461E46E38CA3
:1019A0009BB253B943464A4640212046FFF75AFFAF
:1019B000202350B984F841300AE043464A4680214A
:1019C0002046FFF74FFF28B1202384F84130032041
:1019D000BDE8F88322684EB935F8023BC3F308032B
:1019E0005360E18C013989B2E184D8E716F8013BF4
:1019F000F6E70220ECE70120EAE72DE9F8431F466D
:101A000090F84230202B04460E46914648D10029DA
:101A100048D0002A46D022230025456480F8423071
:101A20000563FEF7D7FEA368A4F82C90B3F5805F9A
:101A30008046A4F82E9003D123690BB935461E4683
:101A4000E08D80B218B9202384F842300AE03B468A
:101A5000424620212046FFF705FF28B1202384F8C5
:101A600042300320BDE8F88323684EB95B68C3F3B6
:101A7000080325F8023BE38D013B9BB2E385DFE7DA
:101A8000A268B2F5805F02D032B9226922B95968E2
:101A9000C9B206F8011BEEE7596801F07F01F8E7CB
:101AA0000220DFE70120DDE743684B609A688A6027
:101AB0005160996003680861013303607047D0E9A1
:101AC000011203698A6051605968814208BF5A60F7
:101AD000002202611A68013A1A6018687047000013
:101AE000074B19680868B0E8F04F80F30988BFF326
:101AF0006F8F4FF0000080F311887047AFF30080C4
:101B0000DC03002000BF00BF000000000000000058
:101B1000EFF30980BFF36F8F154B1A681EF0100F9B
:101B200008BF20ED108A20E9F04F10602DE9090070
:101B30004FF0500080F31188BFF34F8FBFF36F8FCA
:101B400000F0E8F84FF0000080F3118809BC196834
:101B50000868B0E8F04F1EF0100F08BFB0EC108A14
:101B600080F30988BFF36F8F704700BFAFF3008029
:101B7000DC03002000BF00BF80B582B000AF4FF093
:101B8000500383F31188BFF36F8FBFF34F8F7B60D8
:101B900000BF00F025F80346002B03D0064B4FF0A2
:101BA00080521A6000233B603B6883F3118800BFBA
:101BB00000BF0837BD4680BD04ED00E0064A13684B
:101BC0001968064B19B94FF0FF321A607047126856
:101BD000D268D2685268F8E74C0300203003002036
:101BE000414B1B682DE9F74F002B75D13F4B1C680B
:101BF00001341C60BCB93E4B1A68126842B14FF008
:101C0000500383F31188BFF36F8FBFF34F8FFEE74D
:101C1000384A1968106818601160374A1368013330
:101C20001360FFF7CBFF354D354E2B68354F9C4287
:101C30004FF0000B12D23A68D26A14214A43B258CC
:101C4000022A314A126828BF4FF0010B002A18BF40
:101C50004FF0010B584603B0BDE8F08FDFF890A0BD
:101C6000DFF8AC90DAF8002012681AB94FF0FF32B2
:101C70002A60E0E7DAF80020D268D2F80C80D8F8C1
:101C800004108C4201D22960D5E708F104031846FC
:101C90000193FFF714FFD8F8281019B108F11800C4
:101CA000FFF70DFFD8F82C00D9F80030012202FA16
:101CB00000F119434FF0140CC9F800100CFB006040
:101CC0000199FFF7F1FE3868D8F82C10C26A9142EA
:101CD00028BF4FF0010BC5E70C4A136801331360AE
:101CE0004FF0000BB6E700BF2C0300204403002098
:101CF0004C03002048030020340300203003002060
:101D000050030020DC030020380300203C030020A7
:101D100040030020174B1A68174B10B512B101226F
:101D20001A6010BD1A60154B1A68B2FA82F2D2B26C
:101D3000C2F11F02142312495343C818CC5844B9A6
:101D40004FF0500383F31188BFF36F8FBFF34F8FB2
:101D5000FEE744680833646844600B449C4204BF57
:101D600063684360142303FB02114B68DA68054B78
:101D7000D6E700BF2C0300203803002040030020DA
:101D800050030020DC03002007B5FF238DF8073047
:101D900001224FF0FF330DF107010348FFF7DFFD8C
:101DA00003B05DF804FB00BFA400002007B50023CA
:101DB0008DF8073001224FF0FF330DF10701034882
:101DC000FFF7CDFD03B05DF804FB00BFA4000020C9
:101DD00007B54FF0FF3301220DF1070103488DF8DD
:101DE0000720FFF7BCFD03B05DF804FBA400002052
:101DF00030B585B0FEF7D4FC10B1002005B030BD81
:101E00002648FFF723F801460028F6D12448FFF7BB
:101E1000F9F90028F1D1234C0090236B224843F4B8
:101E200080532363236B03F480530093009BFEF7DE
:101E300032FD05460028E0D10190236B1B4943F099
:101E400001032363236B03F001030193019B0290C1
:101E5000636C174843F010036364636C03F0100372
:101E60000293029BFEF722FF12491148FEF71EFF64
:101E70000395236B1049114843F004032363236B3C
:101E800003F004030393039BFEF710FF0C48FFF7D6
:101E90001CFDB0FA80F04009B0E700BF000100204F
:101EA000EC00002000380240740000209000002068
:101EB000000002407C00002060000020000802407A
:101EC000A400002008B5FEF74BFC08B1002008BDB7
:101ED000FFF770FA0028F9D10548FEF7EDFC00285D
:101EE000F4D10448FFF721FDB0FA80F04009EEE795
:101EF00074000020A40000202DE9F0439D4D8FB018
:101F00004FF4967200212846FEF706FB9A484FF4DC
:101F10000051FEF791FF99484FF0FF330122294607
:101F2000FFF76BFD30B1FFF741FF002420460FB0F3
:101F3000BDE8F0832946914811F8012B4FF0FF339B
:101F40000432FFF75AFD6F1C044620B1FFF72EFF45
:101F5000FFF71AFFE9E7DFF83C8287484FF40051AA
:101F6000FEF76AFFD8F8002095F80090936843F0D8
:101F7000010393602646F3B20122EB5C079307A9A5
:101F800040460136FEF7B0FCF3B24B45F3D957F8A3
:101F900009309842DAD16B78103B092B10D8DFE872
:101FA00003F0051A212C49526884AACDFFF710FFCF
:101FB00073494FF0FF3304227048FFF7D0FC01242F
:101FC000FF238DF81C3001224FF0FF3307A96B4827
:101FD000FFF7C5FCAAE7FFF7FBFE6A494FF0FF33A6
:101FE0000A22E9E7FFF7F4FEFEF7FAFB4FF0FF33B2
:101FF000ADF81C00022207A9DEE700230793AB78A7
:102000009A1E032A13D8EA78991806290FDC5E4D28
:10201000C5E90232FEF7FAFC48B907A92846FEF7DF
:10202000F5FD10B9079B013354D0FEF701FDFFF712
:10203000BDFEC5E700230793FEF7E8FC0028F6D1B4
:10204000524807A9EBE7FFF7C3FEFFF79DFED5F85F
:10205000023003F17842A2F50042B2F5C03F04D944
:1020600003F16042B2F5803FAAD243F001039847E2
:10207000A5E7FFF7ADFEFFF787FED5F8025005F1A3
:102080007843A3F50043B3F5C03F04D905F160439D
:10209000B3F5803F94D2FFF715FF3D4B9D602B6851
:1020A00083F308886B6898478AE7D5F80270AE79A1
:1020B00007F17843A3F50043B3F5C03FB7D8B307A2
:1020C000B5D1FEF7A3FC05460028B0D1DFF8C880E3
:1020D000AE4204D8FEF7ACFCFFF77AFE6FE758F883
:1020E0000520002379190220FEF7D4FC00289CD19A
:1020F0000435EDB2ECE7FFF76BFE1C22FF23002155
:102100000DEB02008DF80430FEF706FA07A8FEF783
:1021100019FD0B9B552B0FD0AA2B7FF451AF8DF8D7
:1021200004404FF0FF330122144801A9FFF717FCC8
:10213000B0FA80F4640943E70124F0E7FFF748FEB2
:102140001C220DEB02000021FEF7E6F907A8FEF7BE
:10215000F9FC0B9B01939DF8343002930C9B039385
:10216000089B0493099B05930A9B069318224FF042
:10217000FF33D9E7E003002000080240A40000205C
:102180005A000020500000203C00002028000020C1
:1021900000ED00E074000020E7030020DFF830D0FD
:1021A000FEF75EFA0B480C490C4A002302E0D458B3
:1021B000C4500433C4188C42F9D3094A094C002393
:1021C00001E013600432A242FBD3FEF743FA7047EA
:1021D00000000120000000203001002044220008FF
:1021E000300100200C050020FEE70000024B13B177
:1021F0000248FEF7E3B9704700000000C905000877
:10220000F8B500BFF8BC08BC9E467047F8B500BFE3
:08221000F8BC08BC9E467047B3
:1022180000000000010203040000000000000000AC
:08222800010203040607080986
:0822300028E0FF7F010000001F
:08223800ED2100080902000875
:04224000E1010008B0
:102244000024F40010000000000000000000000062
:102254000000000000000000010000000000000079
:102264000000000000000000000000000100000069
:102274000200000004000000020000000000000052
:102284000100000000000000000000000200000047
:1022940010111213141516171819700A0A0A0000DF
:1022A4000020000001000000000000000200000007
:1022B40000000000003002400000000000040000A4
:1022C40002000000010000000200000007000000FE
:1022D40000020000020000000000000002000000F4
:1022E400070000000010014000C2010000000000CF
:1022F40000000000000000000C00000000000000CE
:102304000080000000000000000000000000000049
:1023140000000000000000000000000000000000B9
:102324000000000000000000000000000F0000009A
:102334000000000000000000000000000000000099
:102344000200000000000000000000000100000086
:102354001000000000000000000000000000000069
:102364000000000000000000000000000000000069
:040000050800219D31
:00000001FF
